{
     "_format": "hh-sol-artifact-1",
     "contractName": "Nft",
     "sourceName": "contracts/Nft.sol",
     "abi": [
          {
               "inputs": [],
               "stateMutability": "nonpayable",
               "type": "constructor"
          },
          {
               "anonymous": false,
               "inputs": [
                    {
                         "indexed": true,
                         "internalType": "address",
                         "name": "owner",
                         "type": "address"
                    },
                    {
                         "indexed": true,
                         "internalType": "address",
                         "name": "approved",
                         "type": "address"
                    },
                    {
                         "indexed": true,
                         "internalType": "uint256",
                         "name": "tokenId",
                         "type": "uint256"
                    }
               ],
               "name": "Approval",
               "type": "event"
          },
          {
               "anonymous": false,
               "inputs": [
                    {
                         "indexed": true,
                         "internalType": "address",
                         "name": "owner",
                         "type": "address"
                    },
                    {
                         "indexed": true,
                         "internalType": "address",
                         "name": "operator",
                         "type": "address"
                    },
                    {
                         "indexed": false,
                         "internalType": "bool",
                         "name": "approved",
                         "type": "bool"
                    }
               ],
               "name": "ApprovalForAll",
               "type": "event"
          },
          {
               "anonymous": false,
               "inputs": [
                    {
                         "indexed": true,
                         "internalType": "address",
                         "name": "previousOwner",
                         "type": "address"
                    },
                    {
                         "indexed": true,
                         "internalType": "address",
                         "name": "newOwner",
                         "type": "address"
                    }
               ],
               "name": "OwnershipTransferred",
               "type": "event"
          },
          {
               "anonymous": false,
               "inputs": [
                    {
                         "indexed": true,
                         "internalType": "address",
                         "name": "from",
                         "type": "address"
                    },
                    {
                         "indexed": true,
                         "internalType": "address",
                         "name": "to",
                         "type": "address"
                    },
                    {
                         "indexed": true,
                         "internalType": "uint256",
                         "name": "tokenId",
                         "type": "uint256"
                    }
               ],
               "name": "Transfer",
               "type": "event"
          },
          {
               "inputs": [
                    {
                         "internalType": "address",
                         "name": "to",
                         "type": "address"
                    },
                    {
                         "internalType": "uint256",
                         "name": "tokenId",
                         "type": "uint256"
                    }
               ],
               "name": "approve",
               "outputs": [],
               "stateMutability": "nonpayable",
               "type": "function"
          },
          {
               "inputs": [
                    {
                         "internalType": "address",
                         "name": "owner",
                         "type": "address"
                    }
               ],
               "name": "balanceOf",
               "outputs": [
                    {
                         "internalType": "uint256",
                         "name": "",
                         "type": "uint256"
                    }
               ],
               "stateMutability": "view",
               "type": "function"
          },
          {
               "inputs": [],
               "name": "baseExtension",
               "outputs": [
                    {
                         "internalType": "string",
                         "name": "",
                         "type": "string"
                    }
               ],
               "stateMutability": "view",
               "type": "function"
          },
          {
               "inputs": [],
               "name": "baseURI",
               "outputs": [
                    {
                         "internalType": "string",
                         "name": "",
                         "type": "string"
                    }
               ],
               "stateMutability": "view",
               "type": "function"
          },
          {
               "inputs": [
                    {
                         "internalType": "address",
                         "name": "to",
                         "type": "address"
                    },
                    {
                         "internalType": "uint256",
                         "name": "tokenId",
                         "type": "uint256"
                    }
               ],
               "name": "bridgeMint",
               "outputs": [],
               "stateMutability": "nonpayable",
               "type": "function"
          },
          {
               "inputs": [
                    {
                         "internalType": "uint256",
                         "name": "tokenId",
                         "type": "uint256"
                    }
               ],
               "name": "getApproved",
               "outputs": [
                    {
                         "internalType": "address",
                         "name": "",
                         "type": "address"
                    }
               ],
               "stateMutability": "view",
               "type": "function"
          },
          {
               "inputs": [
                    {
                         "internalType": "address",
                         "name": "owner",
                         "type": "address"
                    },
                    {
                         "internalType": "address",
                         "name": "operator",
                         "type": "address"
                    }
               ],
               "name": "isApprovedForAll",
               "outputs": [
                    {
                         "internalType": "bool",
                         "name": "",
                         "type": "bool"
                    }
               ],
               "stateMutability": "view",
               "type": "function"
          },
          {
               "inputs": [],
               "name": "maxSupply",
               "outputs": [
                    {
                         "internalType": "uint256",
                         "name": "",
                         "type": "uint256"
                    }
               ],
               "stateMutability": "view",
               "type": "function"
          },
          {
               "inputs": [],
               "name": "name",
               "outputs": [
                    {
                         "internalType": "string",
                         "name": "",
                         "type": "string"
                    }
               ],
               "stateMutability": "view",
               "type": "function"
          },
          {
               "inputs": [],
               "name": "owner",
               "outputs": [
                    {
                         "internalType": "address",
                         "name": "",
                         "type": "address"
                    }
               ],
               "stateMutability": "view",
               "type": "function"
          },
          {
               "inputs": [
                    {
                         "internalType": "uint256",
                         "name": "tokenId",
                         "type": "uint256"
                    }
               ],
               "name": "ownerOf",
               "outputs": [
                    {
                         "internalType": "address",
                         "name": "",
                         "type": "address"
                    }
               ],
               "stateMutability": "view",
               "type": "function"
          },
          {
               "inputs": [
                    {
                         "internalType": "bool",
                         "name": "_state",
                         "type": "bool"
                    }
               ],
               "name": "pause",
               "outputs": [],
               "stateMutability": "nonpayable",
               "type": "function"
          },
          {
               "inputs": [],
               "name": "paused",
               "outputs": [
                    {
                         "internalType": "bool",
                         "name": "",
                         "type": "bool"
                    }
               ],
               "stateMutability": "view",
               "type": "function"
          },
          {
               "inputs": [],
               "name": "renounceOwnership",
               "outputs": [],
               "stateMutability": "nonpayable",
               "type": "function"
          },
          {
               "inputs": [
                    {
                         "internalType": "address",
                         "name": "from",
                         "type": "address"
                    },
                    {
                         "internalType": "address",
                         "name": "to",
                         "type": "address"
                    },
                    {
                         "internalType": "uint256",
                         "name": "tokenId",
                         "type": "uint256"
                    }
               ],
               "name": "safeTransferFrom",
               "outputs": [],
               "stateMutability": "nonpayable",
               "type": "function"
          },
          {
               "inputs": [
                    {
                         "internalType": "address",
                         "name": "from",
                         "type": "address"
                    },
                    {
                         "internalType": "address",
                         "name": "to",
                         "type": "address"
                    },
                    {
                         "internalType": "uint256",
                         "name": "tokenId",
                         "type": "uint256"
                    },
                    {
                         "internalType": "bytes",
                         "name": "data",
                         "type": "bytes"
                    }
               ],
               "name": "safeTransferFrom",
               "outputs": [],
               "stateMutability": "nonpayable",
               "type": "function"
          },
          {
               "inputs": [
                    {
                         "internalType": "address",
                         "name": "operator",
                         "type": "address"
                    },
                    {
                         "internalType": "bool",
                         "name": "approved",
                         "type": "bool"
                    }
               ],
               "name": "setApprovalForAll",
               "outputs": [],
               "stateMutability": "nonpayable",
               "type": "function"
          },
          {
               "inputs": [
                    {
                         "internalType": "string",
                         "name": "_newBaseExtension",
                         "type": "string"
                    }
               ],
               "name": "setBaseExtension",
               "outputs": [],
               "stateMutability": "nonpayable",
               "type": "function"
          },
          {
               "inputs": [
                    {
                         "internalType": "string",
                         "name": "_newBaseURI",
                         "type": "string"
                    }
               ],
               "name": "setBaseURI",
               "outputs": [],
               "stateMutability": "nonpayable",
               "type": "function"
          },
          {
               "inputs": [
                    {
                         "internalType": "bytes4",
                         "name": "interfaceId",
                         "type": "bytes4"
                    }
               ],
               "name": "supportsInterface",
               "outputs": [
                    {
                         "internalType": "bool",
                         "name": "",
                         "type": "bool"
                    }
               ],
               "stateMutability": "view",
               "type": "function"
          },
          {
               "inputs": [],
               "name": "symbol",
               "outputs": [
                    {
                         "internalType": "string",
                         "name": "",
                         "type": "string"
                    }
               ],
               "stateMutability": "view",
               "type": "function"
          },
          {
               "inputs": [
                    {
                         "internalType": "uint256",
                         "name": "index",
                         "type": "uint256"
                    }
               ],
               "name": "tokenByIndex",
               "outputs": [
                    {
                         "internalType": "uint256",
                         "name": "",
                         "type": "uint256"
                    }
               ],
               "stateMutability": "view",
               "type": "function"
          },
          {
               "inputs": [
                    {
                         "internalType": "address",
                         "name": "owner",
                         "type": "address"
                    },
                    {
                         "internalType": "uint256",
                         "name": "index",
                         "type": "uint256"
                    }
               ],
               "name": "tokenOfOwnerByIndex",
               "outputs": [
                    {
                         "internalType": "uint256",
                         "name": "",
                         "type": "uint256"
                    }
               ],
               "stateMutability": "view",
               "type": "function"
          },
          {
               "inputs": [
                    {
                         "internalType": "uint256",
                         "name": "tokenId",
                         "type": "uint256"
                    }
               ],
               "name": "tokenURI",
               "outputs": [
                    {
                         "internalType": "string",
                         "name": "",
                         "type": "string"
                    }
               ],
               "stateMutability": "view",
               "type": "function"
          },
          {
               "inputs": [],
               "name": "totalSupply",
               "outputs": [
                    {
                         "internalType": "uint256",
                         "name": "",
                         "type": "uint256"
                    }
               ],
               "stateMutability": "view",
               "type": "function"
          },
          {
               "inputs": [
                    {
                         "internalType": "address",
                         "name": "from",
                         "type": "address"
                    },
                    {
                         "internalType": "address",
                         "name": "to",
                         "type": "address"
                    },
                    {
                         "internalType": "uint256",
                         "name": "tokenId",
                         "type": "uint256"
                    }
               ],
               "name": "transferFrom",
               "outputs": [],
               "stateMutability": "nonpayable",
               "type": "function"
          },
          {
               "inputs": [
                    {
                         "internalType": "address",
                         "name": "newOwner",
                         "type": "address"
                    }
               ],
               "name": "transferOwnership",
               "outputs": [],
               "stateMutability": "nonpayable",
               "type": "function"
          },
          {
               "inputs": [
                    {
                         "internalType": "address",
                         "name": "_owner",
                         "type": "address"
                    }
               ],
               "name": "walletOfOwner",
               "outputs": [
                    {
                         "internalType": "uint256[]",
                         "name": "",
                         "type": "uint256[]"
                    }
               ],
               "stateMutability": "view",
               "type": "function"
          }
     ],
     "bytecode": "0x60806040526040518060400160405280600581526020017f2e6a736f6e000000000000000000000000000000000000000000000000000000815250600c90816200004a91906200047a565b506103e8600d556000600e60006101000a81548160ff0219169083151502179055503480156200007957600080fd5b506040518060400160405280601681526020017f54616c68612773204e465420436f6c6c656374696f6e000000000000000000008152506040518060400160405280600581526020017f54616c68610000000000000000000000000000000000000000000000000000008152508160009081620000f791906200047a565b5080600190816200010991906200047a565b5050506200012c620001206200013260201b60201c565b6200013a60201b60201c565b62000561565b600033905090565b6000600a60009054906101000a900473ffffffffffffffffffffffffffffffffffffffff16905081600a60006101000a81548173ffffffffffffffffffffffffffffffffffffffff021916908373ffffffffffffffffffffffffffffffffffffffff1602179055508173ffffffffffffffffffffffffffffffffffffffff168173ffffffffffffffffffffffffffffffffffffffff167f8be0079c531659141344cd1fd0a4f28419497f9722a3daafe3b4186f6b6457e060405160405180910390a35050565b600081519050919050565b7f4e487b7100000000000000000000000000000000000000000000000000000000600052604160045260246000fd5b7f4e487b7100000000000000000000000000000000000000000000000000000000600052602260045260246000fd5b600060028204905060018216806200028257607f821691505b6020821081036200029857620002976200023a565b5b50919050565b60008190508160005260206000209050919050565b60006020601f8301049050919050565b600082821b905092915050565b600060088302620003027fffffffffffffffffffffffffffffffffffffffffffffffffffffffffffffffff82620002c3565b6200030e8683620002c3565b95508019841693508086168417925050509392505050565b6000819050919050565b6000819050919050565b60006200035b620003556200034f8462000326565b62000330565b62000326565b9050919050565b6000819050919050565b62000377836200033a565b6200038f620003868262000362565b848454620002d0565b825550505050565b600090565b620003a662000397565b620003b38184846200036c565b505050565b5b81811015620003db57620003cf6000826200039c565b600181019050620003b9565b5050565b601f8211156200042a57620003f4816200029e565b620003ff84620002b3565b810160208510156200040f578190505b620004276200041e85620002b3565b830182620003b8565b50505b505050565b600082821c905092915050565b60006200044f600019846008026200042f565b1980831691505092915050565b60006200046a83836200043c565b9150826002028217905092915050565b620004858262000200565b67ffffffffffffffff811115620004a157620004a06200020b565b5b620004ad825462000269565b620004ba828285620003df565b600060209050601f831160018114620004f25760008415620004dd578287015190505b620004e985826200045c565b86555062000559565b601f19841662000502866200029e565b60005b828110156200052c5784890151825560018201915060208501945060208101905062000505565b868310156200054c578489015162000548601f8916826200043c565b8355505b6001600288020188555050505b505050505050565b613b0b80620005716000396000f3fe608060405234801561001057600080fd5b50600436106101c45760003560e01c80636c0360eb116100f9578063b88d4fde11610097578063d5abeb0111610071578063d5abeb0114610505578063da3ef23f14610523578063e985e9c51461053f578063f2fde38b1461056f576101c4565b8063b88d4fde1461049b578063c6682862146104b7578063c87b56dd146104d5576101c4565b80638c2a993e116100d35780638c2a993e146104275780638da5cb5b1461044357806395d89b4114610461578063a22cb4651461047f576101c4565b80636c0360eb146103cf57806370a08231146103ed578063715018a61461041d576101c4565b80632f745c59116101665780634f6ccce7116101405780634f6ccce71461033557806355f804b3146103655780635c975abb146103815780636352211e1461039f576101c4565b80632f745c59146102b957806342842e0e146102e9578063438b630014610305576101c4565b8063081812fc116101a2578063081812fc14610233578063095ea7b31461026357806318160ddd1461027f57806323b872dd1461029d576101c4565b806301ffc9a7146101c957806302329a29146101f957806306fdde0314610215575b600080fd5b6101e360048036038101906101de919061247d565b61058b565b6040516101f091906124c5565b60405180910390f35b610213600480360381019061020e919061250c565b610605565b005b61021d61062a565b60405161022a91906125c9565b60405180910390f35b61024d60048036038101906102489190612621565b6106bc565b60405161025a919061268f565b60405180910390f35b61027d600480360381019061027891906126d6565b610702565b005b610287610819565b6040516102949190612725565b60405180910390f35b6102b760048036038101906102b29190612740565b610826565b005b6102d360048036038101906102ce91906126d6565b610886565b6040516102e09190612725565b60405180910390f35b61030360048036038101906102fe9190612740565b61092b565b005b61031f600480360381019061031a9190612793565b61094b565b60405161032c919061287e565b60405180910390f35b61034f600480360381019061034a9190612621565b6109f9565b60405161035c9190612725565b60405180910390f35b61037f600480360381019061037a91906129d5565b610a6a565b005b610389610a85565b60405161039691906124c5565b60405180910390f35b6103b960048036038101906103b49190612621565b610a98565b6040516103c6919061268f565b60405180910390f35b6103d7610b1e565b6040516103e491906125c9565b60405180910390f35b61040760048036038101906104029190612793565b610bac565b6040516104149190612725565b60405180910390f35b610425610c63565b005b610441600480360381019061043c91906126d6565b610c77565b005b61044b610c85565b604051610458919061268f565b60405180910390f35b610469610caf565b60405161047691906125c9565b60405180910390f35b61049960048036038101906104949190612a1e565b610d41565b005b6104b560048036038101906104b09190612aff565b610d57565b005b6104bf610db9565b6040516104cc91906125c9565b60405180910390f35b6104ef60048036038101906104ea9190612621565b610e47565b6040516104fc91906125c9565b60405180910390f35b61050d610ef1565b60405161051a9190612725565b60405180910390f35b61053d600480360381019061053891906129d5565b610ef7565b005b61055960048036038101906105549190612b82565b610f12565b60405161056691906124c5565b60405180910390f35b61058960048036038101906105849190612793565b610fa6565b005b60007f780e9d63000000000000000000000000000000000000000000000000000000007bffffffffffffffffffffffffffffffffffffffffffffffffffffffff1916827bffffffffffffffffffffffffffffffffffffffffffffffffffffffff191614806105fe57506105fd82611029565b5b9050919050565b61060d61110b565b80600e60006101000a81548160ff02191690831515021790555050565b60606000805461063990612bf1565b80601f016020809104026020016040519081016040528092919081815260200182805461066590612bf1565b80156106b25780601f10610687576101008083540402835291602001916106b2565b820191906000526020600020905b81548152906001019060200180831161069557829003601f168201915b5050505050905090565b60006106c782611189565b6004600083815260200190815260200160002060009054906101000a900473ffffffffffffffffffffffffffffffffffffffff169050919050565b600061070d82610a98565b90508073ffffffffffffffffffffffffffffffffffffffff168373ffffffffffffffffffffffffffffffffffffffff160361077d576040517f08c379a000000000000000000000000000000000000000000000000000000000815260040161077490612c94565b60405180910390fd5b8073ffffffffffffffffffffffffffffffffffffffff1661079c6111d4565b73ffffffffffffffffffffffffffffffffffffffff1614806107cb57506107ca816107c56111d4565b610f12565b5b61080a576040517f08c379a000000000000000000000000000000000000000000000000000000000815260040161080190612d26565b60405180910390fd5b61081483836111dc565b505050565b6000600880549050905090565b6108376108316111d4565b82611295565b610876576040517f08c379a000000000000000000000000000000000000000000000000000000000815260040161086d90612db8565b60405180910390fd5b61088183838361132a565b505050565b600061089183610bac565b82106108d2576040517f08c379a00000000000000000000000000000000000000000000000000000000081526004016108c990612e4a565b60405180910390fd5b600660008473ffffffffffffffffffffffffffffffffffffffff1673ffffffffffffffffffffffffffffffffffffffff168152602001908152602001600020600083815260200190815260200160002054905092915050565b61094683838360405180602001604052806000815250610d57565b505050565b6060600061095883610bac565b905060008167ffffffffffffffff811115610976576109756128aa565b5b6040519080825280602002602001820160405280156109a45781602001602082028036833780820191505090505b50905060005b828110156109ee576109bc8582610886565b8282815181106109cf576109ce612e6a565b5b60200260200101818152505080806109e690612ec8565b9150506109aa565b508092505050919050565b6000610a03610819565b8210610a44576040517f08c379a0000000000000000000000000000000000000000000000000000000008152600401610a3b90612f82565b60405180910390fd5b60088281548110610a5857610a57612e6a565b5b90600052602060002001549050919050565b610a7261110b565b80600b9081610a81919061314e565b5050565b600e60009054906101000a900460ff1681565b600080610aa483611623565b9050600073ffffffffffffffffffffffffffffffffffffffff168173ffffffffffffffffffffffffffffffffffffffff1603610b15576040517f08c379a0000000000000000000000000000000000000000000000000000000008152600401610b0c9061326c565b60405180910390fd5b80915050919050565b600b8054610b2b90612bf1565b80601f0160208091040260200160405190810160405280929190818152602001828054610b5790612bf1565b8015610ba45780601f10610b7957610100808354040283529160200191610ba4565b820191906000526020600020905b815481529060010190602001808311610b8757829003601f168201915b505050505081565b60008073ffffffffffffffffffffffffffffffffffffffff168273ffffffffffffffffffffffffffffffffffffffff1603610c1c576040517f08c379a0000000000000000000000000000000000000000000000000000000008152600401610c13906132fe565b60405180910390fd5b600360008373ffffffffffffffffffffffffffffffffffffffff1673ffffffffffffffffffffffffffffffffffffffff168152602001908152602001600020549050919050565b610c6b61110b565b610c756000611660565b565b610c818282611726565b5050565b6000600a60009054906101000a900473ffffffffffffffffffffffffffffffffffffffff16905090565b606060018054610cbe90612bf1565b80601f0160208091040260200160405190810160405280929190818152602001828054610cea90612bf1565b8015610d375780601f10610d0c57610100808354040283529160200191610d37565b820191906000526020600020905b815481529060010190602001808311610d1a57829003601f168201915b5050505050905090565b610d53610d4c6111d4565b8383611943565b5050565b610d68610d626111d4565b83611295565b610da7576040517f08c379a0000000000000000000000000000000000000000000000000000000008152600401610d9e90612db8565b60405180910390fd5b610db384848484611aaf565b50505050565b600c8054610dc690612bf1565b80601f0160208091040260200160405190810160405280929190818152602001828054610df290612bf1565b8015610e3f5780601f10610e1457610100808354040283529160200191610e3f565b820191906000526020600020905b815481529060010190602001808311610e2257829003601f168201915b505050505081565b6060610e5282611b0b565b610e91576040517f08c379a0000000000000000000000000000000000000000000000000000000008152600401610e8890613390565b60405180910390fd5b6000610e9b611b4c565b90506000815111610ebb5760405180602001604052806000815250610ee9565b80610ec584611b6c565b600c604051602001610ed99392919061346f565b6040516020818303038152906040525b915050919050565b600d5481565b610eff61110b565b80600c9081610f0e919061314e565b5050565b6000600560008473ffffffffffffffffffffffffffffffffffffffff1673ffffffffffffffffffffffffffffffffffffffff16815260200190815260200160002060008373ffffffffffffffffffffffffffffffffffffffff1673ffffffffffffffffffffffffffffffffffffffff16815260200190815260200160002060009054906101000a900460ff16905092915050565b610fae61110b565b600073ffffffffffffffffffffffffffffffffffffffff168173ffffffffffffffffffffffffffffffffffffffff160361101d576040517f08c379a000000000000000000000000000000000000000000000000000000000815260040161101490613512565b60405180910390fd5b61102681611660565b50565b60007f80ac58cd000000000000000000000000000000000000000000000000000000007bffffffffffffffffffffffffffffffffffffffffffffffffffffffff1916827bffffffffffffffffffffffffffffffffffffffffffffffffffffffff191614806110f457507f5b5e139f000000000000000000000000000000000000000000000000000000007bffffffffffffffffffffffffffffffffffffffffffffffffffffffff1916827bffffffffffffffffffffffffffffffffffffffffffffffffffffffff1916145b80611104575061110382611c3a565b5b9050919050565b6111136111d4565b73ffffffffffffffffffffffffffffffffffffffff16611131610c85565b73ffffffffffffffffffffffffffffffffffffffff1614611187576040517f08c379a000000000000000000000000000000000000000000000000000000000815260040161117e9061357e565b60405180910390fd5b565b61119281611b0b565b6111d1576040517f08c379a00000000000000000000000000000000000000000000000000000000081526004016111c89061326c565b60405180910390fd5b50565b600033905090565b816004600083815260200190815260200160002060006101000a81548173ffffffffffffffffffffffffffffffffffffffff021916908373ffffffffffffffffffffffffffffffffffffffff160217905550808273ffffffffffffffffffffffffffffffffffffffff1661124f83610a98565b73ffffffffffffffffffffffffffffffffffffffff167f8c5be1e5ebec7d5bd14f71427d1e84f3dd0314c0f7b2291e5b200ac8c7c3b92560405160405180910390a45050565b6000806112a183610a98565b90508073ffffffffffffffffffffffffffffffffffffffff168473ffffffffffffffffffffffffffffffffffffffff1614806112e357506112e28185610f12565b5b8061132157508373ffffffffffffffffffffffffffffffffffffffff16611309846106bc565b73ffffffffffffffffffffffffffffffffffffffff16145b91505092915050565b8273ffffffffffffffffffffffffffffffffffffffff1661134a82610a98565b73ffffffffffffffffffffffffffffffffffffffff16146113a0576040517f08c379a000000000000000000000000000000000000000000000000000000000815260040161139790613610565b60405180910390fd5b600073ffffffffffffffffffffffffffffffffffffffff168273ffffffffffffffffffffffffffffffffffffffff160361140f576040517f08c379a0000000000000000000000000000000000000000000000000000000008152600401611406906136a2565b60405180910390fd5b61141c8383836001611ca4565b8273ffffffffffffffffffffffffffffffffffffffff1661143c82610a98565b73ffffffffffffffffffffffffffffffffffffffff1614611492576040517f08c379a000000000000000000000000000000000000000000000000000000000815260040161148990613610565b60405180910390fd5b6004600082815260200190815260200160002060006101000a81549073ffffffffffffffffffffffffffffffffffffffff02191690556001600360008573ffffffffffffffffffffffffffffffffffffffff1673ffffffffffffffffffffffffffffffffffffffff168152602001908152602001600020600082825403925050819055506001600360008473ffffffffffffffffffffffffffffffffffffffff1673ffffffffffffffffffffffffffffffffffffffff16815260200190815260200160002060008282540192505081905550816002600083815260200190815260200160002060006101000a81548173ffffffffffffffffffffffffffffffffffffffff021916908373ffffffffffffffffffffffffffffffffffffffff160217905550808273ffffffffffffffffffffffffffffffffffffffff168473ffffffffffffffffffffffffffffffffffffffff167fddf252ad1be2c89b69c2b068fc378daa952ba7f163c4a11628f55a4df523b3ef60405160405180910390a461161e8383836001611e02565b505050565b60006002600083815260200190815260200160002060009054906101000a900473ffffffffffffffffffffffffffffffffffffffff169050919050565b6000600a60009054906101000a900473ffffffffffffffffffffffffffffffffffffffff16905081600a60006101000a81548173ffffffffffffffffffffffffffffffffffffffff021916908373ffffffffffffffffffffffffffffffffffffffff1602179055508173ffffffffffffffffffffffffffffffffffffffff168173ffffffffffffffffffffffffffffffffffffffff167f8be0079c531659141344cd1fd0a4f28419497f9722a3daafe3b4186f6b6457e060405160405180910390a35050565b600073ffffffffffffffffffffffffffffffffffffffff168273ffffffffffffffffffffffffffffffffffffffff1603611795576040517f08c379a000000000000000000000000000000000000000000000000000000000815260040161178c9061370e565b60405180910390fd5b61179e81611b0b565b156117de576040517f08c379a00000000000000000000000000000000000000000000000000000000081526004016117d59061377a565b60405180910390fd5b6117ec600083836001611ca4565b6117f581611b0b565b15611835576040517f08c379a000000000000000000000000000000000000000000000000000000000815260040161182c9061377a565b60405180910390fd5b6001600360008473ffffffffffffffffffffffffffffffffffffffff1673ffffffffffffffffffffffffffffffffffffffff16815260200190815260200160002060008282540192505081905550816002600083815260200190815260200160002060006101000a81548173ffffffffffffffffffffffffffffffffffffffff021916908373ffffffffffffffffffffffffffffffffffffffff160217905550808273ffffffffffffffffffffffffffffffffffffffff16600073ffffffffffffffffffffffffffffffffffffffff167fddf252ad1be2c89b69c2b068fc378daa952ba7f163c4a11628f55a4df523b3ef60405160405180910390a461193f600083836001611e02565b5050565b8173ffffffffffffffffffffffffffffffffffffffff168373ffffffffffffffffffffffffffffffffffffffff16036119b1576040517f08c379a00000000000000000000000000000000000000000000000000000000081526004016119a8906137e6565b60405180910390fd5b80600560008573ffffffffffffffffffffffffffffffffffffffff1673ffffffffffffffffffffffffffffffffffffffff16815260200190815260200160002060008473ffffffffffffffffffffffffffffffffffffffff1673ffffffffffffffffffffffffffffffffffffffff16815260200190815260200160002060006101000a81548160ff0219169083151502179055508173ffffffffffffffffffffffffffffffffffffffff168373ffffffffffffffffffffffffffffffffffffffff167f17307eab39ab6107e8899845ad3d59bd9653f200f220920489ca2b5937696c3183604051611aa291906124c5565b60405180910390a3505050565b611aba84848461132a565b611ac684848484611e08565b611b05576040517f08c379a0000000000000000000000000000000000000000000000000000000008152600401611afc90613878565b60405180910390fd5b50505050565b60008073ffffffffffffffffffffffffffffffffffffffff16611b2d83611623565b73ffffffffffffffffffffffffffffffffffffffff1614159050919050565b6060604051806060016040528060368152602001613aa060369139905090565b606060006001611b7b84611f8f565b01905060008167ffffffffffffffff811115611b9a57611b996128aa565b5b6040519080825280601f01601f191660200182016040528015611bcc5781602001600182028036833780820191505090505b509050600082602001820190505b600115611c2f578080600190039150507f3031323334353637383961626364656600000000000000000000000000000000600a86061a8153600a8581611c2357611c22613898565b5b04945060008503611bda575b819350505050919050565b60007f01ffc9a7000000000000000000000000000000000000000000000000000000007bffffffffffffffffffffffffffffffffffffffffffffffffffffffff1916827bffffffffffffffffffffffffffffffffffffffffffffffffffffffff1916149050919050565b611cb0848484846120e2565b6001811115611cf4576040517f08c379a0000000000000000000000000000000000000000000000000000000008152600401611ceb90613939565b60405180910390fd5b6000829050600073ffffffffffffffffffffffffffffffffffffffff168573ffffffffffffffffffffffffffffffffffffffff1603611d3b57611d36816120e8565b611d7a565b8373ffffffffffffffffffffffffffffffffffffffff168573ffffffffffffffffffffffffffffffffffffffff1614611d7957611d788582612131565b5b5b600073ffffffffffffffffffffffffffffffffffffffff168473ffffffffffffffffffffffffffffffffffffffff1603611dbc57611db78161229e565b611dfb565b8473ffffffffffffffffffffffffffffffffffffffff168473ffffffffffffffffffffffffffffffffffffffff1614611dfa57611df9848261236f565b5b5b5050505050565b50505050565b6000611e298473ffffffffffffffffffffffffffffffffffffffff166123ee565b15611f82578373ffffffffffffffffffffffffffffffffffffffff1663150b7a02611e526111d4565b8786866040518563ffffffff1660e01b8152600401611e7494939291906139ae565b6020604051808303816000875af1925050508015611eb057506040513d601f19601f82011682018060405250810190611ead9190613a0f565b60015b611f32573d8060008114611ee0576040519150601f19603f3d011682016040523d82523d6000602084013e611ee5565b606091505b506000815103611f2a576040517f08c379a0000000000000000000000000000000000000000000000000000000008152600401611f2190613878565b60405180910390fd5b805181602001fd5b63150b7a0260e01b7bffffffffffffffffffffffffffffffffffffffffffffffffffffffff1916817bffffffffffffffffffffffffffffffffffffffffffffffffffffffff191614915050611f87565b600190505b949350505050565b600080600090507a184f03e93ff9f4daa797ed6e38ed64bf6a1f0100000000000000008310611fed577a184f03e93ff9f4daa797ed6e38ed64bf6a1f0100000000000000008381611fe357611fe2613898565b5b0492506040810190505b6d04ee2d6d415b85acef8100000000831061202a576d04ee2d6d415b85acef810000000083816120205761201f613898565b5b0492506020810190505b662386f26fc10000831061205957662386f26fc10000838161204f5761204e613898565b5b0492506010810190505b6305f5e1008310612082576305f5e100838161207857612077613898565b5b0492506008810190505b61271083106120a757612710838161209d5761209c613898565b5b0492506004810190505b606483106120ca57606483816120c0576120bf613898565b5b0492506002810190505b600a83106120d9576001810190505b80915050919050565b50505050565b6008805490506009600083815260200190815260200160002081905550600881908060018154018082558091505060019003906000526020600020016000909190919091505550565b6000600161213e84610bac565b6121489190613a3c565b905060006007600084815260200190815260200160002054905081811461222d576000600660008673ffffffffffffffffffffffffffffffffffffffff1673ffffffffffffffffffffffffffffffffffffffff168152602001908152602001600020600084815260200190815260200160002054905080600660008773ffffffffffffffffffffffffffffffffffffffff1673ffffffffffffffffffffffffffffffffffffffff168152602001908152602001600020600084815260200190815260200160002081905550816007600083815260200190815260200160002081905550505b6007600084815260200190815260200160002060009055600660008573ffffffffffffffffffffffffffffffffffffffff1673ffffffffffffffffffffffffffffffffffffffff16815260200190815260200160002060008381526020019081526020016000206000905550505050565b600060016008805490506122b29190613a3c565b90506000600960008481526020019081526020016000205490506000600883815481106122e2576122e1612e6a565b5b90600052602060002001549050806008838154811061230457612303612e6a565b5b90600052602060002001819055508160096000838152602001908152602001600020819055506009600085815260200190815260200160002060009055600880548061235357612352613a70565b5b6001900381819060005260206000200160009055905550505050565b600061237a83610bac565b905081600660008573ffffffffffffffffffffffffffffffffffffffff1673ffffffffffffffffffffffffffffffffffffffff168152602001908152602001600020600083815260200190815260200160002081905550806007600084815260200190815260200160002081905550505050565b6000808273ffffffffffffffffffffffffffffffffffffffff163b119050919050565b6000604051905090565b600080fd5b600080fd5b60007fffffffff0000000000000000000000000000000000000000000000000000000082169050919050565b61245a81612425565b811461246557600080fd5b50565b60008135905061247781612451565b92915050565b6000602082840312156124935761249261241b565b5b60006124a184828501612468565b91505092915050565b60008115159050919050565b6124bf816124aa565b82525050565b60006020820190506124da60008301846124b6565b92915050565b6124e9816124aa565b81146124f457600080fd5b50565b600081359050612506816124e0565b92915050565b6000602082840312156125225761252161241b565b5b6000612530848285016124f7565b91505092915050565b600081519050919050565b600082825260208201905092915050565b60005b83811015612573578082015181840152602081019050612558565b60008484015250505050565b6000601f19601f8301169050919050565b600061259b82612539565b6125a58185612544565b93506125b5818560208601612555565b6125be8161257f565b840191505092915050565b600060208201905081810360008301526125e38184612590565b905092915050565b6000819050919050565b6125fe816125eb565b811461260957600080fd5b50565b60008135905061261b816125f5565b92915050565b6000602082840312156126375761263661241b565b5b60006126458482850161260c565b91505092915050565b600073ffffffffffffffffffffffffffffffffffffffff82169050919050565b60006126798261264e565b9050919050565b6126898161266e565b82525050565b60006020820190506126a46000830184612680565b92915050565b6126b38161266e565b81146126be57600080fd5b50565b6000813590506126d0816126aa565b92915050565b600080604083850312156126ed576126ec61241b565b5b60006126fb858286016126c1565b925050602061270c8582860161260c565b9150509250929050565b61271f816125eb565b82525050565b600060208201905061273a6000830184612716565b92915050565b6000806000606084860312156127595761275861241b565b5b6000612767868287016126c1565b9350506020612778868287016126c1565b92505060406127898682870161260c565b9150509250925092565b6000602082840312156127a9576127a861241b565b5b60006127b7848285016126c1565b91505092915050565b600081519050919050565b600082825260208201905092915050565b6000819050602082019050919050565b6127f5816125eb565b82525050565b600061280783836127ec565b60208301905092915050565b6000602082019050919050565b600061282b826127c0565b61283581856127cb565b9350612840836127dc565b8060005b8381101561287157815161285888826127fb565b975061286383612813565b925050600181019050612844565b5085935050505092915050565b600060208201905081810360008301526128988184612820565b905092915050565b600080fd5b600080fd5b7f4e487b7100000000000000000000000000000000000000000000000000000000600052604160045260246000fd5b6128e28261257f565b810181811067ffffffffffffffff82111715612901576129006128aa565b5b80604052505050565b6000612914612411565b905061292082826128d9565b919050565b600067ffffffffffffffff8211156129405761293f6128aa565b5b6129498261257f565b9050602081019050919050565b82818337600083830152505050565b600061297861297384612925565b61290a565b905082815260208101848484011115612994576129936128a5565b5b61299f848285612956565b509392505050565b600082601f8301126129bc576129bb6128a0565b5b81356129cc848260208601612965565b91505092915050565b6000602082840312156129eb576129ea61241b565b5b600082013567ffffffffffffffff811115612a0957612a08612420565b5b612a15848285016129a7565b91505092915050565b60008060408385031215612a3557612a3461241b565b5b6000612a43858286016126c1565b9250506020612a54858286016124f7565b9150509250929050565b600067ffffffffffffffff821115612a7957612a786128aa565b5b612a828261257f565b9050602081019050919050565b6000612aa2612a9d84612a5e565b61290a565b905082815260208101848484011115612abe57612abd6128a5565b5b612ac9848285612956565b509392505050565b600082601f830112612ae657612ae56128a0565b5b8135612af6848260208601612a8f565b91505092915050565b60008060008060808587031215612b1957612b1861241b565b5b6000612b27878288016126c1565b9450506020612b38878288016126c1565b9350506040612b498782880161260c565b925050606085013567ffffffffffffffff811115612b6a57612b69612420565b5b612b7687828801612ad1565b91505092959194509250565b60008060408385031215612b9957612b9861241b565b5b6000612ba7858286016126c1565b9250506020612bb8858286016126c1565b9150509250929050565b7f4e487b7100000000000000000000000000000000000000000000000000000000600052602260045260246000fd5b60006002820490506001821680612c0957607f821691505b602082108103612c1c57612c1b612bc2565b5b50919050565b7f4552433732313a20617070726f76616c20746f2063757272656e74206f776e6560008201527f7200000000000000000000000000000000000000000000000000000000000000602082015250565b6000612c7e602183612544565b9150612c8982612c22565b604082019050919050565b60006020820190508181036000830152612cad81612c71565b9050919050565b7f4552433732313a20617070726f76652063616c6c6572206973206e6f7420746f60008201527f6b656e206f776e6572206f7220617070726f76656420666f7220616c6c000000602082015250565b6000612d10603d83612544565b9150612d1b82612cb4565b604082019050919050565b60006020820190508181036000830152612d3f81612d03565b9050919050565b7f4552433732313a2063616c6c6572206973206e6f7420746f6b656e206f776e6560008201527f72206f7220617070726f76656400000000000000000000000000000000000000602082015250565b6000612da2602d83612544565b9150612dad82612d46565b604082019050919050565b60006020820190508181036000830152612dd181612d95565b9050919050565b7f455243373231456e756d657261626c653a206f776e657220696e646578206f7560008201527f74206f6620626f756e6473000000000000000000000000000000000000000000602082015250565b6000612e34602b83612544565b9150612e3f82612dd8565b604082019050919050565b60006020820190508181036000830152612e6381612e27565b9050919050565b7f4e487b7100000000000000000000000000000000000000000000000000000000600052603260045260246000fd5b7f4e487b7100000000000000000000000000000000000000000000000000000000600052601160045260246000fd5b6000612ed3826125eb565b91507fffffffffffffffffffffffffffffffffffffffffffffffffffffffffffffffff8203612f0557612f04612e99565b5b600182019050919050565b7f455243373231456e756d657261626c653a20676c6f62616c20696e646578206f60008201527f7574206f6620626f756e64730000000000000000000000000000000000000000602082015250565b6000612f6c602c83612544565b9150612f7782612f10565b604082019050919050565b60006020820190508181036000830152612f9b81612f5f565b9050919050565b60008190508160005260206000209050919050565b60006020601f8301049050919050565b600082821b905092915050565b6000600883026130047fffffffffffffffffffffffffffffffffffffffffffffffffffffffffffffffff82612fc7565b61300e8683612fc7565b95508019841693508086168417925050509392505050565b6000819050919050565b600061304b613046613041846125eb565b613026565b6125eb565b9050919050565b6000819050919050565b61306583613030565b61307961307182613052565b848454612fd4565b825550505050565b600090565b61308e613081565b61309981848461305c565b505050565b5b818110156130bd576130b2600082613086565b60018101905061309f565b5050565b601f821115613102576130d381612fa2565b6130dc84612fb7565b810160208510156130eb578190505b6130ff6130f785612fb7565b83018261309e565b50505b505050565b600082821c905092915050565b600061312560001984600802613107565b1980831691505092915050565b600061313e8383613114565b9150826002028217905092915050565b61315782612539565b67ffffffffffffffff8111156131705761316f6128aa565b5b61317a8254612bf1565b6131858282856130c1565b600060209050601f8311600181146131b857600084156131a6578287015190505b6131b08582613132565b865550613218565b601f1984166131c686612fa2565b60005b828110156131ee578489015182556001820191506020850194506020810190506131c9565b8683101561320b5784890151613207601f891682613114565b8355505b6001600288020188555050505b505050505050565b7f4552433732313a20696e76616c696420746f6b656e2049440000000000000000600082015250565b6000613256601883612544565b915061326182613220565b602082019050919050565b6000602082019050818103600083015261328581613249565b9050919050565b7f4552433732313a2061646472657373207a65726f206973206e6f74206120766160008201527f6c6964206f776e65720000000000000000000000000000000000000000000000602082015250565b60006132e8602983612544565b91506132f38261328c565b604082019050919050565b60006020820190508181036000830152613317816132db565b9050919050565b7f4552433732314d657461646174613a2055524920717565727920666f72206e6f60008201527f6e6578697374656e7420746f6b656e0000000000000000000000000000000000602082015250565b600061337a602f83612544565b91506133858261331e565b604082019050919050565b600060208201905081810360008301526133a98161336d565b9050919050565b600081905092915050565b60006133c682612539565b6133d081856133b0565b93506133e0818560208601612555565b80840191505092915050565b600081546133f981612bf1565b61340381866133b0565b9450600182166000811461341e576001811461343357613466565b60ff1983168652811515820286019350613466565b61343c85612fa2565b60005b8381101561345e5781548189015260018201915060208101905061343f565b838801955050505b50505092915050565b600061347b82866133bb565b915061348782856133bb565b915061349382846133ec565b9150819050949350505050565b7f4f776e61626c653a206e6577206f776e657220697320746865207a65726f206160008201527f6464726573730000000000000000000000000000000000000000000000000000602082015250565b60006134fc602683612544565b9150613507826134a0565b604082019050919050565b6000602082019050818103600083015261352b816134ef565b9050919050565b7f4f776e61626c653a2063616c6c6572206973206e6f7420746865206f776e6572600082015250565b6000613568602083612544565b915061357382613532565b602082019050919050565b600060208201905081810360008301526135978161355b565b9050919050565b7f4552433732313a207472616e736665722066726f6d20696e636f72726563742060008201527f6f776e6572000000000000000000000000000000000000000000000000000000602082015250565b60006135fa602583612544565b91506136058261359e565b604082019050919050565b60006020820190508181036000830152613629816135ed565b9050919050565b7f4552433732313a207472616e7366657220746f20746865207a65726f2061646460008201527f7265737300000000000000000000000000000000000000000000000000000000602082015250565b600061368c602483612544565b915061369782613630565b604082019050919050565b600060208201905081810360008301526136bb8161367f565b9050919050565b7f4552433732313a206d696e7420746f20746865207a65726f2061646472657373600082015250565b60006136f8602083612544565b9150613703826136c2565b602082019050919050565b60006020820190508181036000830152613727816136eb565b9050919050565b7f4552433732313a20746f6b656e20616c7265616479206d696e74656400000000600082015250565b6000613764601c83612544565b915061376f8261372e565b602082019050919050565b6000602082019050818103600083015261379381613757565b9050919050565b7f4552433732313a20617070726f766520746f2063616c6c657200000000000000600082015250565b60006137d0601983612544565b91506137db8261379a565b602082019050919050565b600060208201905081810360008301526137ff816137c3565b9050919050565b7f4552433732313a207472616e7366657220746f206e6f6e20455243373231526560008201527f63656976657220696d706c656d656e7465720000000000000000000000000000602082015250565b6000613862603283612544565b915061386d82613806565b604082019050919050565b6000602082019050818103600083015261389181613855565b9050919050565b7f4e487b7100000000000000000000000000000000000000000000000000000000600052601260045260246000fd5b7f455243373231456e756d657261626c653a20636f6e736563757469766520747260008201527f616e7366657273206e6f7420737570706f727465640000000000000000000000602082015250565b6000613923603583612544565b915061392e826138c7565b604082019050919050565b6000602082019050818103600083015261395281613916565b9050919050565b600081519050919050565b600082825260208201905092915050565b600061398082613959565b61398a8185613964565b935061399a818560208601612555565b6139a38161257f565b840191505092915050565b60006080820190506139c36000830187612680565b6139d06020830186612680565b6139dd6040830185612716565b81810360608301526139ef8184613975565b905095945050505050565b600081519050613a0981612451565b92915050565b600060208284031215613a2557613a2461241b565b5b6000613a33848285016139fa565b91505092915050565b6000613a47826125eb565b9150613a52836125eb565b9250828203905081811115613a6a57613a69612e99565b5b92915050565b7f4e487b7100000000000000000000000000000000000000000000000000000000600052603160045260246000fdfe697066733a2f2f516d59423575575a7166756e42713779576e616d54716f585742414869516f69724e4c6d75784d7a4454684868692fa2646970667358221220a2557ca8699737cfcbd38e25d5b863c69fa42536033a1606107a65020268d72f64736f6c63430008120033",
     "linkReferences": {},
     "deployedLinkReferences": {}
}